{
  "_format": "hh-sol-artifact-1",
  "contractName": "DuelRewards",
  "sourceName": "src/contracts/DuelRewards.sol",
  "abi": [
    {
      "inputs": [
        {
          "internalType": "address",
          "name": "_cusd",
          "type": "address"
        },
        {
          "internalType": "address",
          "name": "_treasury",
          "type": "address"
        }
      ],
      "stateMutability": "nonpayable",
      "type": "constructor"
    },
    {
      "inputs": [],
      "name": "AlreadyClaimed",
      "type": "error"
    },
    {
      "inputs": [],
      "name": "DailyLimitReached",
      "type": "error"
    },
    {
      "inputs": [],
      "name": "FeeTooHigh",
      "type": "error"
    },
    {
      "inputs": [],
      "name": "InvalidSignature",
      "type": "error"
    },
    {
      "inputs": [],
      "name": "InvalidSignatureLength",
      "type": "error"
    },
    {
      "inputs": [],
      "name": "NotOwner",
      "type": "error"
    },
    {
      "inputs": [],
      "name": "PoolEmpty",
      "type": "error"
    },
    {
      "inputs": [],
      "name": "TransferFailed",
      "type": "error"
    },
    {
      "anonymous": false,
      "inputs": [
        {
          "indexed": true,
          "internalType": "address",
          "name": "previousOwner",
          "type": "address"
        },
        {
          "indexed": true,
          "internalType": "address",
          "name": "newOwner",
          "type": "address"
        }
      ],
      "name": "OwnershipTransferred",
      "type": "event"
    },
    {
      "anonymous": false,
      "inputs": [
        {
          "indexed": false,
          "internalType": "uint256",
          "name": "amount",
          "type": "uint256"
        }
      ],
      "name": "PoolToppedUp",
      "type": "event"
    },
    {
      "anonymous": false,
      "inputs": [
        {
          "indexed": true,
          "internalType": "address",
          "name": "player",
          "type": "address"
        },
        {
          "indexed": false,
          "internalType": "uint256",
          "name": "playerAmount",
          "type": "uint256"
        },
        {
          "indexed": false,
          "internalType": "uint256",
          "name": "fee",
          "type": "uint256"
        }
      ],
      "name": "RewardClaimed",
      "type": "event"
    },
    {
      "inputs": [
        {
          "internalType": "bytes32",
          "name": "nonce",
          "type": "bytes32"
        },
        {
          "internalType": "bytes",
          "name": "signature",
          "type": "bytes"
        }
      ],
      "name": "claimReward",
      "outputs": [],
      "stateMutability": "nonpayable",
      "type": "function"
    },
    {
      "inputs": [],
      "name": "cusd",
      "outputs": [
        {
          "internalType": "contract IERC20",
          "name": "",
          "type": "address"
        }
      ],
      "stateMutability": "view",
      "type": "function"
    },
    {
      "inputs": [],
      "name": "dailyClaimLimit",
      "outputs": [
        {
          "internalType": "uint256",
          "name": "",
          "type": "uint256"
        }
      ],
      "stateMutability": "view",
      "type": "function"
    },
    {
      "inputs": [
        {
          "internalType": "address",
          "name": "",
          "type": "address"
        },
        {
          "internalType": "uint256",
          "name": "",
          "type": "uint256"
        }
      ],
      "name": "dailyClaims",
      "outputs": [
        {
          "internalType": "uint256",
          "name": "",
          "type": "uint256"
        }
      ],
      "stateMutability": "view",
      "type": "function"
    },
    {
      "inputs": [],
      "name": "getLeaderboard",
      "outputs": [
        {
          "internalType": "address[]",
          "name": "addrs",
          "type": "address[]"
        },
        {
          "internalType": "uint256[]",
          "name": "wins",
          "type": "uint256[]"
        }
      ],
      "stateMutability": "view",
      "type": "function"
    },
    {
      "inputs": [
        {
          "internalType": "address",
          "name": "",
          "type": "address"
        }
      ],
      "name": "isPlayer",
      "outputs": [
        {
          "internalType": "bool",
          "name": "",
          "type": "bool"
        }
      ],
      "stateMutability": "view",
      "type": "function"
    },
    {
      "inputs": [],
      "name": "owner",
      "outputs": [
        {
          "internalType": "address",
          "name": "",
          "type": "address"
        }
      ],
      "stateMutability": "view",
      "type": "function"
    },
    {
      "inputs": [
        {
          "internalType": "uint256",
          "name": "",
          "type": "uint256"
        }
      ],
      "name": "players",
      "outputs": [
        {
          "internalType": "address",
          "name": "",
          "type": "address"
        }
      ],
      "stateMutability": "view",
      "type": "function"
    },
    {
      "inputs": [],
      "name": "poolBalance",
      "outputs": [
        {
          "internalType": "uint256",
          "name": "",
          "type": "uint256"
        }
      ],
      "stateMutability": "view",
      "type": "function"
    },
    {
      "inputs": [],
      "name": "protocolFeePercent",
      "outputs": [
        {
          "internalType": "uint256",
          "name": "",
          "type": "uint256"
        }
      ],
      "stateMutability": "view",
      "type": "function"
    },
    {
      "inputs": [],
      "name": "rewardAmount",
      "outputs": [
        {
          "internalType": "uint256",
          "name": "",
          "type": "uint256"
        }
      ],
      "stateMutability": "view",
      "type": "function"
    },
    {
      "inputs": [
        {
          "internalType": "uint256",
          "name": "_limit",
          "type": "uint256"
        }
      ],
      "name": "setDailyLimit",
      "outputs": [],
      "stateMutability": "nonpayable",
      "type": "function"
    },
    {
      "inputs": [
        {
          "internalType": "uint256",
          "name": "_percent",
          "type": "uint256"
        }
      ],
      "name": "setProtocolFee",
      "outputs": [],
      "stateMutability": "nonpayable",
      "type": "function"
    },
    {
      "inputs": [
        {
          "internalType": "uint256",
          "name": "_amount",
          "type": "uint256"
        }
      ],
      "name": "setRewardAmount",
      "outputs": [],
      "stateMutability": "nonpayable",
      "type": "function"
    },
    {
      "inputs": [
        {
          "internalType": "address",
          "name": "_treasury",
          "type": "address"
        }
      ],
      "name": "setTreasury",
      "outputs": [],
      "stateMutability": "nonpayable",
      "type": "function"
    },
    {
      "inputs": [
        {
          "internalType": "address",
          "name": "",
          "type": "address"
        }
      ],
      "name": "totalWins",
      "outputs": [
        {
          "internalType": "uint256",
          "name": "",
          "type": "uint256"
        }
      ],
      "stateMutability": "view",
      "type": "function"
    },
    {
      "inputs": [
        {
          "internalType": "address",
          "name": "newOwner",
          "type": "address"
        }
      ],
      "name": "transferOwnership",
      "outputs": [],
      "stateMutability": "nonpayable",
      "type": "function"
    },
    {
      "inputs": [],
      "name": "treasury",
      "outputs": [
        {
          "internalType": "address",
          "name": "",
          "type": "address"
        }
      ],
      "stateMutability": "view",
      "type": "function"
    },
    {
      "inputs": [
        {
          "internalType": "bytes32",
          "name": "",
          "type": "bytes32"
        }
      ],
      "name": "usedNonces",
      "outputs": [
        {
          "internalType": "bool",
          "name": "",
          "type": "bool"
        }
      ],
      "stateMutability": "view",
      "type": "function"
    },
    {
      "inputs": [
        {
          "internalType": "uint256",
          "name": "amount",
          "type": "uint256"
        }
      ],
      "name": "withdrawPool",
      "outputs": [],
      "stateMutability": "nonpayable",
      "type": "function"
    }
  ],
  "bytecode": "0x60a060405266b1a2bc2ec500006002556005600355600a6004553480156200002657600080fd5b50604051620024413803806200244183398181016040528101906200004c919062000173565b336000806101000a81548173ffffffffffffffffffffffffffffffffffffffff021916908373ffffffffffffffffffffffffffffffffffffffff16021790555080600160006101000a81548173ffffffffffffffffffffffffffffffffffffffff021916908373ffffffffffffffffffffffffffffffffffffffff1602179055508173ffffffffffffffffffffffffffffffffffffffff1660808173ffffffffffffffffffffffffffffffffffffffff16815250505050620001ba565b600080fd5b600073ffffffffffffffffffffffffffffffffffffffff82169050919050565b60006200013b826200010e565b9050919050565b6200014d816200012e565b81146200015957600080fd5b50565b6000815190506200016d8162000142565b92915050565b600080604083850312156200018d576200018c62000109565b5b60006200019d858286016200015c565b9250506020620001b0858286016200015c565b9150509250929050565b608051612248620001f9600039600081816103f8015281816104c6015281816107f401528181610aba01528181610b8e01526112f201526122486000f3fe608060405234801561001057600080fd5b506004361061012c5760003560e01c806396e9b0e2116100ad578063f0f4426011610071578063f0f4426014610320578063f2fde38b1461033c578063f71d96cb14610358578063f7b2a7be14610388578063feb61724146103a65761012c565b806396e9b0e21461027c578063a8a65a78146102ac578063b20d30a9146102c8578063d6e6eb9f146102e4578063ee7352da146103025761012c565b8063687e0465116100f4578063687e0465146101e95780636d763a6e14610205578063787dce3d146102245780638da5cb5b1461024057806396365d441461025e5761012c565b806309c95e10146101315780630c577bdc146101615780633c42f64b1461017f5780634c034ea9146101af57806361d027b3146101cb575b600080fd5b61014b60048036038101906101469190611867565b6103d6565b60405161015891906118af565b60405180910390f35b6101696103f6565b6040516101769190611929565b60405180910390f35b6101996004803603810190610194919061197a565b61041a565b6040516101a691906119c9565b60405180910390f35b6101c960048036038101906101c491906119e4565b61043f565b005b6101d36105bb565b6040516101e09190611a20565b60405180910390f35b61020360048036038101906101fe9190611bb7565b6105e1565b005b61020d610cdb565b60405161021b929190611d8f565b60405180910390f35b61023e600480360381019061023991906119e4565b611200565b005b6102486112ca565b6040516102559190611a20565b60405180910390f35b6102666112ee565b60405161027391906119c9565b60405180910390f35b61029660048036038101906102919190611867565b61138f565b6040516102a391906119c9565b60405180910390f35b6102c660048036038101906102c191906119e4565b6113a7565b005b6102e260048036038101906102dd91906119e4565b611436565b005b6102ec6114c5565b6040516102f991906119c9565b60405180910390f35b61030a6114cb565b60405161031791906119c9565b60405180910390f35b61033a60048036038101906103359190611867565b6114d1565b005b61035660048036038101906103519190611867565b61159a565b005b610372600480360381019061036d91906119e4565b6116dc565b60405161037f9190611a20565b60405180910390f35b61039061171b565b60405161039d91906119c9565b60405180910390f35b6103c060048036038101906103bb9190611dc6565b611721565b6040516103cd91906118af565b60405180910390f35b60086020528060005260406000206000915054906101000a900460ff1681565b7f000000000000000000000000000000000000000000000000000000000000000081565b6005602052816000526040600020602052806000526040600020600091509150505481565b60008054906101000a900473ffffffffffffffffffffffffffffffffffffffff1673ffffffffffffffffffffffffffffffffffffffff163373ffffffffffffffffffffffffffffffffffffffff16146104c4576040517f30cd747100000000000000000000000000000000000000000000000000000000815260040160405180910390fd5b7f000000000000000000000000000000000000000000000000000000000000000073ffffffffffffffffffffffffffffffffffffffff1663a9059cbb60008054906101000a900473ffffffffffffffffffffffffffffffffffffffff16836040518363ffffffff1660e01b815260040161053f929190611df3565b6020604051808303816000875af115801561055e573d6000803e3d6000fd5b505050506040513d601f19601f820116820180604052508101906105829190611e48565b6105b8576040517f90b8ec1800000000000000000000000000000000000000000000000000000000815260040160405180910390fd5b50565b600160009054906101000a900473ffffffffffffffffffffffffffffffffffffffff1681565b6006600083815260200190815260200160002060009054906101000a900460ff1615610639576040517f646cf55800000000000000000000000000000000000000000000000000000000815260040160405180910390fd5b6000338360405160200161064e929190611ede565b6040516020818303038152906040528051906020012090506000816040516020016106799190611f61565b60405160208183030381529060405280519060200120905060008054906101000a900473ffffffffffffffffffffffffffffffffffffffff1673ffffffffffffffffffffffffffffffffffffffff166106d28285611741565b73ffffffffffffffffffffffffffffffffffffffff161461071f576040517f8baa579f00000000000000000000000000000000000000000000000000000000815260040160405180910390fd5b600062015180426107309190611fe5565b9050600354600560003373ffffffffffffffffffffffffffffffffffffffff1673ffffffffffffffffffffffffffffffffffffffff168152602001908152602001600020600083815260200190815260200160002054106107bd576040517ff402e5b100000000000000000000000000000000000000000000000000000000815260040160405180910390fd5b600060646004546002546107d19190612016565b6107db9190611fe5565b90506000816002546107ed9190612058565b90506002547f000000000000000000000000000000000000000000000000000000000000000073ffffffffffffffffffffffffffffffffffffffff166370a08231306040518263ffffffff1660e01b815260040161084b9190611a20565b602060405180830381865afa158015610868573d6000803e3d6000fd5b505050506040513d601f19601f8201168201806040525081019061088c91906120a1565b10156108c4576040517fb9c049a000000000000000000000000000000000000000000000000000000000815260040160405180910390fd5b60016006600089815260200190815260200160002060006101000a81548160ff021916908315150217905550600560003373ffffffffffffffffffffffffffffffffffffffff1673ffffffffffffffffffffffffffffffffffffffff16815260200190815260200160002060008481526020019081526020016000206000815480929190610951906120ce565b9190505550600760003373ffffffffffffffffffffffffffffffffffffffff1673ffffffffffffffffffffffffffffffffffffffff16815260200190815260200160002060008154809291906109a6906120ce565b9190505550600860003373ffffffffffffffffffffffffffffffffffffffff1673ffffffffffffffffffffffffffffffffffffffff16815260200190815260200160002060009054906101000a900460ff16610ab8576009339080600181540180825580915050600190039060005260206000200160009091909190916101000a81548173ffffffffffffffffffffffffffffffffffffffff021916908373ffffffffffffffffffffffffffffffffffffffff1602179055506001600860003373ffffffffffffffffffffffffffffffffffffffff1673ffffffffffffffffffffffffffffffffffffffff16815260200190815260200160002060006101000a81548160ff0219169083151502179055505b7f000000000000000000000000000000000000000000000000000000000000000073ffffffffffffffffffffffffffffffffffffffff1663a9059cbb33836040518363ffffffff1660e01b8152600401610b13929190611df3565b6020604051808303816000875af1158015610b32573d6000803e3d6000fd5b505050506040513d601f19601f82011682018060405250810190610b569190611e48565b610b8c576040517f90b8ec1800000000000000000000000000000000000000000000000000000000815260040160405180910390fd5b7f000000000000000000000000000000000000000000000000000000000000000073ffffffffffffffffffffffffffffffffffffffff1663a9059cbb600160009054906101000a900473ffffffffffffffffffffffffffffffffffffffff16846040518363ffffffff1660e01b8152600401610c09929190611df3565b6020604051808303816000875af1158015610c28573d6000803e3d6000fd5b505050506040513d601f19601f82011682018060405250810190610c4c9190611e48565b610c82576040517f90b8ec1800000000000000000000000000000000000000000000000000000000815260040160405180910390fd5b3373ffffffffffffffffffffffffffffffffffffffff167ff01da32686223933d8a18a391060918c7f11a3648639edd87ae013e2e27317438284604051610cca929190612116565b60405180910390a250505050505050565b606080600060098054905090506000600a8211610cf85781610cfb565b600a5b905060008267ffffffffffffffff811115610d1957610d18611a8c565b5b604051908082528060200260200182016040528015610d475781602001602082028036833780820191505090505b50905060008367ffffffffffffffff811115610d6657610d65611a8c565b5b604051908082528060200260200182016040528015610d945781602001602082028036833780820191505090505b50905060005b84811015610edc5760098181548110610db657610db561213f565b5b9060005260206000200160009054906101000a900473ffffffffffffffffffffffffffffffffffffffff16838281518110610df457610df361213f565b5b602002602001019073ffffffffffffffffffffffffffffffffffffffff16908173ffffffffffffffffffffffffffffffffffffffff16815250506007600060098381548110610e4657610e4561213f565b5b9060005260206000200160009054906101000a900473ffffffffffffffffffffffffffffffffffffffff1673ffffffffffffffffffffffffffffffffffffffff1673ffffffffffffffffffffffffffffffffffffffff16815260200190815260200160002054828281518110610ebf57610ebe61213f565b5b60200260200101818152505080610ed5906120ce565b9050610d9a565b5060005b848110156110a2576000600182610ef7919061216e565b90505b8581101561109057828281518110610f1557610f1461213f565b5b6020026020010151838281518110610f3057610f2f61213f565b5b6020026020010151111561107f57828181518110610f5157610f5061213f565b5b6020026020010151838381518110610f6c57610f6b61213f565b5b6020026020010151848481518110610f8757610f8661213f565b5b60200260200101858481518110610fa157610fa061213f565b5b6020026020010182815250828152505050838181518110610fc557610fc461213f565b5b6020026020010151848381518110610fe057610fdf61213f565b5b6020026020010151858481518110610ffb57610ffa61213f565b5b602002602001018684815181106110155761101461213f565b5b602002602001018273ffffffffffffffffffffffffffffffffffffffff1673ffffffffffffffffffffffffffffffffffffffff168152508273ffffffffffffffffffffffffffffffffffffffff1673ffffffffffffffffffffffffffffffffffffffff1681525050505b80611089906120ce565b9050610efa565b508061109b906120ce565b9050610ee0565b508267ffffffffffffffff8111156110bd576110bc611a8c565b5b6040519080825280602002602001820160405280156110eb5781602001602082028036833780820191505090505b5095508267ffffffffffffffff81111561110857611107611a8c565b5b6040519080825280602002602001820160405280156111365781602001602082028036833780820191505090505b50945060005b838110156111f7578281815181106111575761115661213f565b5b60200260200101518782815181106111725761117161213f565b5b602002602001019073ffffffffffffffffffffffffffffffffffffffff16908173ffffffffffffffffffffffffffffffffffffffff16815250508181815181106111bf576111be61213f565b5b60200260200101518682815181106111da576111d961213f565b5b602002602001018181525050806111f0906120ce565b905061113c565b50505050509091565b60008054906101000a900473ffffffffffffffffffffffffffffffffffffffff1673ffffffffffffffffffffffffffffffffffffffff163373ffffffffffffffffffffffffffffffffffffffff1614611285576040517f30cd747100000000000000000000000000000000000000000000000000000000815260040160405180910390fd5b601e8111156112c0576040517fcd4e616700000000000000000000000000000000000000000000000000000000815260040160405180910390fd5b8060048190555050565b60008054906101000a900473ffffffffffffffffffffffffffffffffffffffff1681565b60007f000000000000000000000000000000000000000000000000000000000000000073ffffffffffffffffffffffffffffffffffffffff166370a08231306040518263ffffffff1660e01b81526004016113499190611a20565b602060405180830381865afa158015611366573d6000803e3d6000fd5b505050506040513d601f19601f8201168201806040525081019061138a91906120a1565b905090565b60076020528060005260406000206000915090505481565b60008054906101000a900473ffffffffffffffffffffffffffffffffffffffff1673ffffffffffffffffffffffffffffffffffffffff163373ffffffffffffffffffffffffffffffffffffffff161461142c576040517f30cd747100000000000000000000000000000000000000000000000000000000815260040160405180910390fd5b8060028190555050565b60008054906101000a900473ffffffffffffffffffffffffffffffffffffffff1673ffffffffffffffffffffffffffffffffffffffff163373ffffffffffffffffffffffffffffffffffffffff16146114bb576040517f30cd747100000000000000000000000000000000000000000000000000000000815260040160405180910390fd5b8060038190555050565b60045481565b60035481565b60008054906101000a900473ffffffffffffffffffffffffffffffffffffffff1673ffffffffffffffffffffffffffffffffffffffff163373ffffffffffffffffffffffffffffffffffffffff1614611556576040517f30cd747100000000000000000000000000000000000000000000000000000000815260040160405180910390fd5b80600160006101000a81548173ffffffffffffffffffffffffffffffffffffffff021916908373ffffffffffffffffffffffffffffffffffffffff16021790555050565b60008054906101000a900473ffffffffffffffffffffffffffffffffffffffff1673ffffffffffffffffffffffffffffffffffffffff163373ffffffffffffffffffffffffffffffffffffffff161461161f576040517f30cd747100000000000000000000000000000000000000000000000000000000815260040160405180910390fd5b8073ffffffffffffffffffffffffffffffffffffffff1660008054906101000a900473ffffffffffffffffffffffffffffffffffffffff1673ffffffffffffffffffffffffffffffffffffffff167f8be0079c531659141344cd1fd0a4f28419497f9722a3daafe3b4186f6b6457e060405160405180910390a3806000806101000a81548173ffffffffffffffffffffffffffffffffffffffff021916908373ffffffffffffffffffffffffffffffffffffffff16021790555050565b600981815481106116ec57600080fd5b906000526020600020016000915054906101000a900473ffffffffffffffffffffffffffffffffffffffff1681565b60025481565b60066020528060005260406000206000915054906101000a900460ff1681565b6000604182511461177e576040517f4be6321b00000000000000000000000000000000000000000000000000000000815260040160405180910390fd5b60008060006020850151925060408501519150606085015160001a9050600186828585604051600081526020016040526040516117be94939291906121cd565b6020604051602081039080840390855afa1580156117e0573d6000803e3d6000fd5b50505060206040510351935050505092915050565b6000604051905090565b600080fd5b600080fd5b600073ffffffffffffffffffffffffffffffffffffffff82169050919050565b600061183482611809565b9050919050565b61184481611829565b811461184f57600080fd5b50565b6000813590506118618161183b565b92915050565b60006020828403121561187d5761187c6117ff565b5b600061188b84828501611852565b91505092915050565b60008115159050919050565b6118a981611894565b82525050565b60006020820190506118c460008301846118a0565b92915050565b6000819050919050565b60006118ef6118ea6118e584611809565b6118ca565b611809565b9050919050565b6000611901826118d4565b9050919050565b6000611913826118f6565b9050919050565b61192381611908565b82525050565b600060208201905061193e600083018461191a565b92915050565b6000819050919050565b61195781611944565b811461196257600080fd5b50565b6000813590506119748161194e565b92915050565b60008060408385031215611991576119906117ff565b5b600061199f85828601611852565b92505060206119b085828601611965565b9150509250929050565b6119c381611944565b82525050565b60006020820190506119de60008301846119ba565b92915050565b6000602082840312156119fa576119f96117ff565b5b6000611a0884828501611965565b91505092915050565b611a1a81611829565b82525050565b6000602082019050611a356000830184611a11565b92915050565b6000819050919050565b611a4e81611a3b565b8114611a5957600080fd5b50565b600081359050611a6b81611a45565b92915050565b600080fd5b600080fd5b6000601f19601f8301169050919050565b7f4e487b7100000000000000000000000000000000000000000000000000000000600052604160045260246000fd5b611ac482611a7b565b810181811067ffffffffffffffff82111715611ae357611ae2611a8c565b5b80604052505050565b6000611af66117f5565b9050611b028282611abb565b919050565b600067ffffffffffffffff821115611b2257611b21611a8c565b5b611b2b82611a7b565b9050602081019050919050565b82818337600083830152505050565b6000611b5a611b5584611b07565b611aec565b905082815260208101848484011115611b7657611b75611a76565b5b611b81848285611b38565b509392505050565b600082601f830112611b9e57611b9d611a71565b5b8135611bae848260208601611b47565b91505092915050565b60008060408385031215611bce57611bcd6117ff565b5b6000611bdc85828601611a5c565b925050602083013567ffffffffffffffff811115611bfd57611bfc611804565b5b611c0985828601611b89565b9150509250929050565b600081519050919050565b600082825260208201905092915050565b6000819050602082019050919050565b611c4881611829565b82525050565b6000611c5a8383611c3f565b60208301905092915050565b6000602082019050919050565b6000611c7e82611c13565b611c888185611c1e565b9350611c9383611c2f565b8060005b83811015611cc4578151611cab8882611c4e565b9750611cb683611c66565b925050600181019050611c97565b5085935050505092915050565b600081519050919050565b600082825260208201905092915050565b6000819050602082019050919050565b611d0681611944565b82525050565b6000611d188383611cfd565b60208301905092915050565b6000602082019050919050565b6000611d3c82611cd1565b611d468185611cdc565b9350611d5183611ced565b8060005b83811015611d82578151611d698882611d0c565b9750611d7483611d24565b925050600181019050611d55565b5085935050505092915050565b60006040820190508181036000830152611da98185611c73565b90508181036020830152611dbd8184611d31565b90509392505050565b600060208284031215611ddc57611ddb6117ff565b5b6000611dea84828501611a5c565b91505092915050565b6000604082019050611e086000830185611a11565b611e1560208301846119ba565b9392505050565b611e2581611894565b8114611e3057600080fd5b50565b600081519050611e4281611e1c565b92915050565b600060208284031215611e5e57611e5d6117ff565b5b6000611e6c84828501611e33565b91505092915050565b60008160601b9050919050565b6000611e8d82611e75565b9050919050565b6000611e9f82611e82565b9050919050565b611eb7611eb282611829565b611e94565b82525050565b6000819050919050565b611ed8611ed382611a3b565b611ebd565b82525050565b6000611eea8285611ea6565b601482019150611efa8284611ec7565b6020820191508190509392505050565b600081905092915050565b7f19457468657265756d205369676e6564204d6573736167653a0a333200000000600082015250565b6000611f4b601c83611f0a565b9150611f5682611f15565b601c82019050919050565b6000611f6c82611f3e565b9150611f788284611ec7565b60208201915081905092915050565b7f4e487b7100000000000000000000000000000000000000000000000000000000600052601260045260246000fd5b7f4e487b7100000000000000000000000000000000000000000000000000000000600052601160045260246000fd5b6000611ff082611944565b9150611ffb83611944565b92508261200b5761200a611f87565b5b828204905092915050565b600061202182611944565b915061202c83611944565b925082820261203a81611944565b9150828204841483151761205157612050611fb6565b5b5092915050565b600061206382611944565b915061206e83611944565b925082820390508181111561208657612085611fb6565b5b92915050565b60008151905061209b8161194e565b92915050565b6000602082840312156120b7576120b66117ff565b5b60006120c58482850161208c565b91505092915050565b60006120d982611944565b91507fffffffffffffffffffffffffffffffffffffffffffffffffffffffffffffffff820361210b5761210a611fb6565b5b600182019050919050565b600060408201905061212b60008301856119ba565b61213860208301846119ba565b9392505050565b7f4e487b7100000000000000000000000000000000000000000000000000000000600052603260045260246000fd5b600061217982611944565b915061218483611944565b925082820190508082111561219c5761219b611fb6565b5b92915050565b6121ab81611a3b565b82525050565b600060ff82169050919050565b6121c7816121b1565b82525050565b60006080820190506121e260008301876121a2565b6121ef60208301866121be565b6121fc60408301856121a2565b61220960608301846121a2565b9594505050505056fea2646970667358221220f785040cd65bb34231e398aad348833c2cc2b9dbc50bc21318182cc89b5cd7e864736f6c63430008140033",
  "linkReferences": {},
  "deployedLinkReferences": {}
}