{
  "_format": "hh-sol-artifact-1",
  "contractName": "DuelRewards",
  "sourceName": "src/contracts/DuelRewards.sol",
  "abi": [
    {
      "inputs": [
        {
          "internalType": "address",
          "name": "_cusd",
          "type": "address"
        },
        {
          "internalType": "address",
          "name": "_treasury",
          "type": "address"
        }
      ],
      "stateMutability": "nonpayable",
      "type": "constructor"
    },
    {
      "inputs": [],
      "name": "AlreadyClaimed",
      "type": "error"
    },
    {
      "inputs": [],
      "name": "DailyLimitReached",
      "type": "error"
    },
    {
      "inputs": [],
      "name": "DuelNotActive",
      "type": "error"
    },
    {
      "inputs": [],
      "name": "FeeTooHigh",
      "type": "error"
    },
    {
      "inputs": [],
      "name": "InsufficientAllowance",
      "type": "error"
    },
    {
      "inputs": [],
      "name": "InvalidSignature",
      "type": "error"
    },
    {
      "inputs": [],
      "name": "InvalidSignatureLength",
      "type": "error"
    },
    {
      "inputs": [],
      "name": "NotDuelParticipant",
      "type": "error"
    },
    {
      "inputs": [],
      "name": "NotOwner",
      "type": "error"
    },
    {
      "inputs": [],
      "name": "PoolEmpty",
      "type": "error"
    },
    {
      "inputs": [],
      "name": "TransferFailed",
      "type": "error"
    },
    {
      "anonymous": false,
      "inputs": [
        {
          "indexed": true,
          "internalType": "uint256",
          "name": "duelId",
          "type": "uint256"
        },
        {
          "indexed": true,
          "internalType": "address",
          "name": "player1",
          "type": "address"
        },
        {
          "indexed": false,
          "internalType": "uint256",
          "name": "wager",
          "type": "uint256"
        }
      ],
      "name": "DuelCreated",
      "type": "event"
    },
    {
      "anonymous": false,
      "inputs": [
        {
          "indexed": true,
          "internalType": "uint256",
          "name": "duelId",
          "type": "uint256"
        },
        {
          "indexed": true,
          "internalType": "address",
          "name": "player2",
          "type": "address"
        }
      ],
      "name": "DuelJoined",
      "type": "event"
    },
    {
      "anonymous": false,
      "inputs": [
        {
          "indexed": true,
          "internalType": "uint256",
          "name": "duelId",
          "type": "uint256"
        },
        {
          "indexed": true,
          "internalType": "address",
          "name": "winner",
          "type": "address"
        },
        {
          "indexed": false,
          "internalType": "uint256",
          "name": "prize",
          "type": "uint256"
        }
      ],
      "name": "DuelResolved",
      "type": "event"
    },
    {
      "anonymous": false,
      "inputs": [
        {
          "indexed": true,
          "internalType": "uint256",
          "name": "duelId",
          "type": "uint256"
        },
        {
          "indexed": false,
          "internalType": "uint256",
          "name": "refund",
          "type": "uint256"
        }
      ],
      "name": "DuelTied",
      "type": "event"
    },
    {
      "anonymous": false,
      "inputs": [
        {
          "indexed": true,
          "internalType": "address",
          "name": "previousOwner",
          "type": "address"
        },
        {
          "indexed": true,
          "internalType": "address",
          "name": "newOwner",
          "type": "address"
        }
      ],
      "name": "OwnershipTransferred",
      "type": "event"
    },
    {
      "anonymous": false,
      "inputs": [
        {
          "indexed": false,
          "internalType": "uint256",
          "name": "amount",
          "type": "uint256"
        }
      ],
      "name": "PoolToppedUp",
      "type": "event"
    },
    {
      "anonymous": false,
      "inputs": [
        {
          "indexed": true,
          "internalType": "address",
          "name": "player",
          "type": "address"
        },
        {
          "indexed": false,
          "internalType": "uint256",
          "name": "playerAmount",
          "type": "uint256"
        },
        {
          "indexed": false,
          "internalType": "uint256",
          "name": "fee",
          "type": "uint256"
        }
      ],
      "name": "RewardClaimed",
      "type": "event"
    },
    {
      "inputs": [
        {
          "internalType": "bytes32",
          "name": "nonce",
          "type": "bytes32"
        },
        {
          "internalType": "bytes",
          "name": "signature",
          "type": "bytes"
        }
      ],
      "name": "claimReward",
      "outputs": [],
      "stateMutability": "nonpayable",
      "type": "function"
    },
    {
      "inputs": [
        {
          "internalType": "uint256",
          "name": "amount",
          "type": "uint256"
        }
      ],
      "name": "createDuel",
      "outputs": [],
      "stateMutability": "nonpayable",
      "type": "function"
    },
    {
      "inputs": [],
      "name": "cusd",
      "outputs": [
        {
          "internalType": "contract IERC20",
          "name": "",
          "type": "address"
        }
      ],
      "stateMutability": "view",
      "type": "function"
    },
    {
      "inputs": [],
      "name": "dailyClaimLimit",
      "outputs": [
        {
          "internalType": "uint256",
          "name": "",
          "type": "uint256"
        }
      ],
      "stateMutability": "view",
      "type": "function"
    },
    {
      "inputs": [
        {
          "internalType": "address",
          "name": "",
          "type": "address"
        },
        {
          "internalType": "uint256",
          "name": "",
          "type": "uint256"
        }
      ],
      "name": "dailyClaims",
      "outputs": [
        {
          "internalType": "uint256",
          "name": "",
          "type": "uint256"
        }
      ],
      "stateMutability": "view",
      "type": "function"
    },
    {
      "inputs": [
        {
          "internalType": "uint256",
          "name": "",
          "type": "uint256"
        }
      ],
      "name": "duels",
      "outputs": [
        {
          "internalType": "address",
          "name": "player1",
          "type": "address"
        },
        {
          "internalType": "address",
          "name": "player2",
          "type": "address"
        },
        {
          "internalType": "uint256",
          "name": "wager",
          "type": "uint256"
        },
        {
          "internalType": "bool",
          "name": "isActive",
          "type": "bool"
        }
      ],
      "stateMutability": "view",
      "type": "function"
    },
    {
      "inputs": [],
      "name": "getLeaderboard",
      "outputs": [
        {
          "internalType": "address[]",
          "name": "addrs",
          "type": "address[]"
        },
        {
          "internalType": "uint256[]",
          "name": "wins",
          "type": "uint256[]"
        }
      ],
      "stateMutability": "view",
      "type": "function"
    },
    {
      "inputs": [
        {
          "internalType": "address",
          "name": "",
          "type": "address"
        }
      ],
      "name": "isPlayer",
      "outputs": [
        {
          "internalType": "bool",
          "name": "",
          "type": "bool"
        }
      ],
      "stateMutability": "view",
      "type": "function"
    },
    {
      "inputs": [
        {
          "internalType": "uint256",
          "name": "duelId",
          "type": "uint256"
        }
      ],
      "name": "joinDuel",
      "outputs": [],
      "stateMutability": "nonpayable",
      "type": "function"
    },
    {
      "inputs": [],
      "name": "nextDuelId",
      "outputs": [
        {
          "internalType": "uint256",
          "name": "",
          "type": "uint256"
        }
      ],
      "stateMutability": "view",
      "type": "function"
    },
    {
      "inputs": [],
      "name": "owner",
      "outputs": [
        {
          "internalType": "address",
          "name": "",
          "type": "address"
        }
      ],
      "stateMutability": "view",
      "type": "function"
    },
    {
      "inputs": [
        {
          "internalType": "uint256",
          "name": "",
          "type": "uint256"
        }
      ],
      "name": "players",
      "outputs": [
        {
          "internalType": "address",
          "name": "",
          "type": "address"
        }
      ],
      "stateMutability": "view",
      "type": "function"
    },
    {
      "inputs": [],
      "name": "poolBalance",
      "outputs": [
        {
          "internalType": "uint256",
          "name": "",
          "type": "uint256"
        }
      ],
      "stateMutability": "view",
      "type": "function"
    },
    {
      "inputs": [],
      "name": "protocolFeePercent",
      "outputs": [
        {
          "internalType": "uint256",
          "name": "",
          "type": "uint256"
        }
      ],
      "stateMutability": "view",
      "type": "function"
    },
    {
      "inputs": [
        {
          "internalType": "uint256",
          "name": "duelId",
          "type": "uint256"
        },
        {
          "internalType": "address",
          "name": "winner",
          "type": "address"
        },
        {
          "internalType": "bytes32",
          "name": "nonce",
          "type": "bytes32"
        },
        {
          "internalType": "bytes",
          "name": "signature",
          "type": "bytes"
        }
      ],
      "name": "resolveDuel",
      "outputs": [],
      "stateMutability": "nonpayable",
      "type": "function"
    },
    {
      "inputs": [],
      "name": "rewardAmount",
      "outputs": [
        {
          "internalType": "uint256",
          "name": "",
          "type": "uint256"
        }
      ],
      "stateMutability": "view",
      "type": "function"
    },
    {
      "inputs": [
        {
          "internalType": "uint256",
          "name": "_limit",
          "type": "uint256"
        }
      ],
      "name": "setDailyLimit",
      "outputs": [],
      "stateMutability": "nonpayable",
      "type": "function"
    },
    {
      "inputs": [
        {
          "internalType": "uint256",
          "name": "_percent",
          "type": "uint256"
        }
      ],
      "name": "setProtocolFee",
      "outputs": [],
      "stateMutability": "nonpayable",
      "type": "function"
    },
    {
      "inputs": [
        {
          "internalType": "uint256",
          "name": "_amount",
          "type": "uint256"
        }
      ],
      "name": "setRewardAmount",
      "outputs": [],
      "stateMutability": "nonpayable",
      "type": "function"
    },
    {
      "inputs": [
        {
          "internalType": "address",
          "name": "_treasury",
          "type": "address"
        }
      ],
      "name": "setTreasury",
      "outputs": [],
      "stateMutability": "nonpayable",
      "type": "function"
    },
    {
      "inputs": [
        {
          "internalType": "address",
          "name": "",
          "type": "address"
        }
      ],
      "name": "totalWins",
      "outputs": [
        {
          "internalType": "uint256",
          "name": "",
          "type": "uint256"
        }
      ],
      "stateMutability": "view",
      "type": "function"
    },
    {
      "inputs": [
        {
          "internalType": "address",
          "name": "newOwner",
          "type": "address"
        }
      ],
      "name": "transferOwnership",
      "outputs": [],
      "stateMutability": "nonpayable",
      "type": "function"
    },
    {
      "inputs": [],
      "name": "treasury",
      "outputs": [
        {
          "internalType": "address",
          "name": "",
          "type": "address"
        }
      ],
      "stateMutability": "view",
      "type": "function"
    },
    {
      "inputs": [
        {
          "internalType": "bytes32",
          "name": "",
          "type": "bytes32"
        }
      ],
      "name": "usedNonces",
      "outputs": [
        {
          "internalType": "bool",
          "name": "",
          "type": "bool"
        }
      ],
      "stateMutability": "view",
      "type": "function"
    },
    {
      "inputs": [
        {
          "internalType": "uint256",
          "name": "amount",
          "type": "uint256"
        }
      ],
      "name": "withdrawPool",
      "outputs": [],
      "stateMutability": "nonpayable",
      "type": "function"
    }
  ],
  "bytecode": "0x60a060405266b1a2bc2ec500006002556005600355600a60045560016005553480156200002b57600080fd5b506040516200362438038062003624833981810160405281019062000051919062000178565b336000806101000a81548173ffffffffffffffffffffffffffffffffffffffff021916908373ffffffffffffffffffffffffffffffffffffffff16021790555080600160006101000a81548173ffffffffffffffffffffffffffffffffffffffff021916908373ffffffffffffffffffffffffffffffffffffffff1602179055508173ffffffffffffffffffffffffffffffffffffffff1660808173ffffffffffffffffffffffffffffffffffffffff16815250505050620001bf565b600080fd5b600073ffffffffffffffffffffffffffffffffffffffff82169050919050565b6000620001408262000113565b9050919050565b620001528162000133565b81146200015e57600080fd5b50565b600081519050620001728162000147565b92915050565b600080604083850312156200019257620001916200010e565b5b6000620001a28582860162000161565b9250506020620001b58582860162000161565b9150509250929050565b6080516133f56200022f600039600081816104e4015281816105b20152818161092701528181610a1f01528181610b1701528181610f0b01528181610fdf0152818161134201528181611608015281816116dc01528181611ebd0152818161209201526123b801526133f56000f3fe608060405234801561001057600080fd5b50600436106101735760003560e01c806396365d44116100de578063e8097b7e11610097578063f2fde38b11610071578063f2fde38b14610428578063f71d96cb14610444578063f7b2a7be14610474578063feb617241461049257610173565b8063e8097b7e146103d2578063ee7352da146103ee578063f0f442601461040c57610173565b806396365d441461031257806396e9b0e214610330578063a8a65a7814610360578063b20d30a91461037c578063bdaf46c014610398578063d6e6eb9f146103b457610173565b8063669e742e11610130578063669e742e1461024e578063687e04651461026a5780636d763a6e14610286578063787dce3d146102a5578063859a62d0146102c15780638da5cb5b146102f457610173565b806309c95e10146101785780630c577bdc146101a85780633c42f64b146101c65780634c034ea9146101f6578063549ec6141461021257806361d027b314610230575b600080fd5b610192600480360381019061018d91906128b7565b6104c2565b60405161019f91906128ff565b60405180910390f35b6101b06104e2565b6040516101bd9190612979565b60405180910390f35b6101e060048036038101906101db91906129ca565b610506565b6040516101ed9190612a19565b60405180910390f35b610210600480360381019061020b9190612a34565b61052b565b005b61021a6106a7565b6040516102279190612a19565b60405180910390f35b6102386106ad565b6040516102459190612a70565b60405180910390f35b61026860048036038101906102639190612c07565b6106d3565b005b610284600480360381019061027f9190612c8a565b61112f565b005b61028e611829565b60405161029c929190612e62565b60405180910390f35b6102bf60048036038101906102ba9190612a34565b611d4e565b005b6102db60048036038101906102d69190612a34565b611e18565b6040516102eb9493929190612e99565b60405180910390f35b6102fc611e95565b6040516103099190612a70565b60405180910390f35b61031a611eb9565b6040516103279190612a19565b60405180910390f35b61034a600480360381019061034591906128b7565b611f5a565b6040516103579190612a19565b60405180910390f35b61037a60048036038101906103759190612a34565b611f72565b005b61039660048036038101906103919190612a34565b612001565b005b6103b260048036038101906103ad9190612a34565b612090565b005b6103bc6122f3565b6040516103c99190612a19565b60405180910390f35b6103ec60048036038101906103e79190612a34565b6122f9565b005b6103f661251b565b6040516104039190612a19565b60405180910390f35b610426600480360381019061042191906128b7565b612521565b005b610442600480360381019061043d91906128b7565b6125ea565b005b61045e60048036038101906104599190612a34565b61272c565b60405161046b9190612a70565b60405180910390f35b61047c61276b565b6040516104899190612a19565b60405180910390f35b6104ac60048036038101906104a79190612ede565b612771565b6040516104b991906128ff565b60405180910390f35b600a6020528060005260406000206000915054906101000a900460ff1681565b7f000000000000000000000000000000000000000000000000000000000000000081565b6007602052816000526040600020602052806000526040600020600091509150505481565b60008054906101000a900473ffffffffffffffffffffffffffffffffffffffff1673ffffffffffffffffffffffffffffffffffffffff163373ffffffffffffffffffffffffffffffffffffffff16146105b0576040517f30cd747100000000000000000000000000000000000000000000000000000000815260040160405180910390fd5b7f000000000000000000000000000000000000000000000000000000000000000073ffffffffffffffffffffffffffffffffffffffff1663a9059cbb60008054906101000a900473ffffffffffffffffffffffffffffffffffffffff16836040518363ffffffff1660e01b815260040161062b929190612f0b565b6020604051808303816000875af115801561064a573d6000803e3d6000fd5b505050506040513d601f19601f8201168201806040525081019061066e9190612f60565b6106a4576040517f90b8ec1800000000000000000000000000000000000000000000000000000000815260040160405180910390fd5b50565b60055481565b600160009054906101000a900473ffffffffffffffffffffffffffffffffffffffff1681565b6008600083815260200190815260200160002060009054906101000a900460ff161561072b576040517f646cf55800000000000000000000000000000000000000000000000000000000815260040160405180910390fd5b60006006600086815260200190815260200160002090508060030160009054906101000a900460ff1661078a576040517ffaff9e1b00000000000000000000000000000000000000000000000000000000815260040160405180910390fd5b600073ffffffffffffffffffffffffffffffffffffffff168473ffffffffffffffffffffffffffffffffffffffff1603610c595760008585856040516020016107d593929190613017565b60405160208183030381529060405280519060200120905060008160405160200161080091906130ab565b60405160208183030381529060405280519060200120905060008054906101000a900473ffffffffffffffffffffffffffffffffffffffff1673ffffffffffffffffffffffffffffffffffffffff166108598286612791565b73ffffffffffffffffffffffffffffffffffffffff16146108a6576040517f8baa579f00000000000000000000000000000000000000000000000000000000815260040160405180910390fd5b6000606460045485600201546108bc9190613100565b6108c69190613171565b905060008185600201546108da91906131a2565b905060008560030160006101000a81548160ff02191690831515021790555060016008600089815260200190815260200160002060006101000a81548160ff0219169083151502179055507f000000000000000000000000000000000000000000000000000000000000000073ffffffffffffffffffffffffffffffffffffffff1663a9059cbb8660000160009054906101000a900473ffffffffffffffffffffffffffffffffffffffff16836040518363ffffffff1660e01b81526004016109a4929190612f0b565b6020604051808303816000875af11580156109c3573d6000803e3d6000fd5b505050506040513d601f19601f820116820180604052508101906109e79190612f60565b610a1d576040517f90b8ec1800000000000000000000000000000000000000000000000000000000815260040160405180910390fd5b7f000000000000000000000000000000000000000000000000000000000000000073ffffffffffffffffffffffffffffffffffffffff1663a9059cbb8660010160009054906101000a900473ffffffffffffffffffffffffffffffffffffffff16836040518363ffffffff1660e01b8152600401610a9c929190612f0b565b6020604051808303816000875af1158015610abb573d6000803e3d6000fd5b505050506040513d601f19601f82011682018060405250810190610adf9190612f60565b610b15576040517f90b8ec1800000000000000000000000000000000000000000000000000000000815260040160405180910390fd5b7f000000000000000000000000000000000000000000000000000000000000000073ffffffffffffffffffffffffffffffffffffffff1663a9059cbb600160009054906101000a900473ffffffffffffffffffffffffffffffffffffffff16600285610b819190613100565b6040518363ffffffff1660e01b8152600401610b9e929190612f0b565b6020604051808303816000875af1158015610bbd573d6000803e3d6000fd5b505050506040513d601f19601f82011682018060405250810190610be19190612f60565b610c17576040517f90b8ec1800000000000000000000000000000000000000000000000000000000815260040160405180910390fd5b887f636c52b6d0fe55599abf7824f536ae2fe45f3577d7fe2203b66d0786c64eabcc82604051610c479190612a19565b60405180910390a25050505050611129565b8060000160009054906101000a900473ffffffffffffffffffffffffffffffffffffffff1673ffffffffffffffffffffffffffffffffffffffff168473ffffffffffffffffffffffffffffffffffffffff1614158015610d0957508060010160009054906101000a900473ffffffffffffffffffffffffffffffffffffffff1673ffffffffffffffffffffffffffffffffffffffff168473ffffffffffffffffffffffffffffffffffffffff1614155b15610d40576040517fff8d743d00000000000000000000000000000000000000000000000000000000815260040160405180910390fd5b6000858585604051602001610d5793929190613017565b604051602081830303815290604052805190602001209050600081604051602001610d8291906130ab565b60405160208183030381529060405280519060200120905060008054906101000a900473ffffffffffffffffffffffffffffffffffffffff1673ffffffffffffffffffffffffffffffffffffffff16610ddb8286612791565b73ffffffffffffffffffffffffffffffffffffffff1614610e28576040517f8baa579f00000000000000000000000000000000000000000000000000000000815260040160405180910390fd5b600060028460020154610e3b9190613100565b90506000606460045483610e4f9190613100565b610e599190613171565b905060008183610e6991906131a2565b905060008660030160006101000a81548160ff0219169083151502179055506001600860008a815260200190815260200160002060006101000a81548160ff021916908315150217905550600960008a73ffffffffffffffffffffffffffffffffffffffff1673ffffffffffffffffffffffffffffffffffffffff1681526020019081526020016000206000815480929190610f04906131d6565b91905055507f000000000000000000000000000000000000000000000000000000000000000073ffffffffffffffffffffffffffffffffffffffff1663a9059cbb8a836040518363ffffffff1660e01b8152600401610f64929190612f0b565b6020604051808303816000875af1158015610f83573d6000803e3d6000fd5b505050506040513d601f19601f82011682018060405250810190610fa79190612f60565b610fdd576040517f90b8ec1800000000000000000000000000000000000000000000000000000000815260040160405180910390fd5b7f000000000000000000000000000000000000000000000000000000000000000073ffffffffffffffffffffffffffffffffffffffff1663a9059cbb600160009054906101000a900473ffffffffffffffffffffffffffffffffffffffff16846040518363ffffffff1660e01b815260040161105a929190612f0b565b6020604051808303816000875af1158015611079573d6000803e3d6000fd5b505050506040513d601f19601f8201168201806040525081019061109d9190612f60565b6110d3576040517f90b8ec1800000000000000000000000000000000000000000000000000000000815260040160405180910390fd5b8873ffffffffffffffffffffffffffffffffffffffff168a7fd2d14203a8502465d92786f3415ee5b15563e80ba4d30d71c42fd866247d111d8360405161111a9190612a19565b60405180910390a35050505050505b50505050565b6008600083815260200190815260200160002060009054906101000a900460ff1615611187576040517f646cf55800000000000000000000000000000000000000000000000000000000815260040160405180910390fd5b6000338360405160200161119c92919061321e565b6040516020818303038152906040528051906020012090506000816040516020016111c791906130ab565b60405160208183030381529060405280519060200120905060008054906101000a900473ffffffffffffffffffffffffffffffffffffffff1673ffffffffffffffffffffffffffffffffffffffff166112208285612791565b73ffffffffffffffffffffffffffffffffffffffff161461126d576040517f8baa579f00000000000000000000000000000000000000000000000000000000815260040160405180910390fd5b6000620151804261127e9190613171565b9050600354600760003373ffffffffffffffffffffffffffffffffffffffff1673ffffffffffffffffffffffffffffffffffffffff1681526020019081526020016000206000838152602001908152602001600020541061130b576040517ff402e5b100000000000000000000000000000000000000000000000000000000815260040160405180910390fd5b6000606460045460025461131f9190613100565b6113299190613171565b905060008160025461133b91906131a2565b90506002547f000000000000000000000000000000000000000000000000000000000000000073ffffffffffffffffffffffffffffffffffffffff166370a08231306040518263ffffffff1660e01b81526004016113999190612a70565b602060405180830381865afa1580156113b6573d6000803e3d6000fd5b505050506040513d601f19601f820116820180604052508101906113da919061325f565b1015611412576040517fb9c049a000000000000000000000000000000000000000000000000000000000815260040160405180910390fd5b60016008600089815260200190815260200160002060006101000a81548160ff021916908315150217905550600760003373ffffffffffffffffffffffffffffffffffffffff1673ffffffffffffffffffffffffffffffffffffffff1681526020019081526020016000206000848152602001908152602001600020600081548092919061149f906131d6565b9190505550600960003373ffffffffffffffffffffffffffffffffffffffff1673ffffffffffffffffffffffffffffffffffffffff16815260200190815260200160002060008154809291906114f4906131d6565b9190505550600a60003373ffffffffffffffffffffffffffffffffffffffff1673ffffffffffffffffffffffffffffffffffffffff16815260200190815260200160002060009054906101000a900460ff1661160657600b339080600181540180825580915050600190039060005260206000200160009091909190916101000a81548173ffffffffffffffffffffffffffffffffffffffff021916908373ffffffffffffffffffffffffffffffffffffffff1602179055506001600a60003373ffffffffffffffffffffffffffffffffffffffff1673ffffffffffffffffffffffffffffffffffffffff16815260200190815260200160002060006101000a81548160ff0219169083151502179055505b7f000000000000000000000000000000000000000000000000000000000000000073ffffffffffffffffffffffffffffffffffffffff1663a9059cbb33836040518363ffffffff1660e01b8152600401611661929190612f0b565b6020604051808303816000875af1158015611680573d6000803e3d6000fd5b505050506040513d601f19601f820116820180604052508101906116a49190612f60565b6116da576040517f90b8ec1800000000000000000000000000000000000000000000000000000000815260040160405180910390fd5b7f000000000000000000000000000000000000000000000000000000000000000073ffffffffffffffffffffffffffffffffffffffff1663a9059cbb600160009054906101000a900473ffffffffffffffffffffffffffffffffffffffff16846040518363ffffffff1660e01b8152600401611757929190612f0b565b6020604051808303816000875af1158015611776573d6000803e3d6000fd5b505050506040513d601f19601f8201168201806040525081019061179a9190612f60565b6117d0576040517f90b8ec1800000000000000000000000000000000000000000000000000000000815260040160405180910390fd5b3373ffffffffffffffffffffffffffffffffffffffff167ff01da32686223933d8a18a391060918c7f11a3648639edd87ae013e2e2731743828460405161181892919061328c565b60405180910390a250505050505050565b6060806000600b8054905090506000600a82116118465781611849565b600a5b905060008267ffffffffffffffff81111561186757611866612adc565b5b6040519080825280602002602001820160405280156118955781602001602082028036833780820191505090505b50905060008367ffffffffffffffff8111156118b4576118b3612adc565b5b6040519080825280602002602001820160405280156118e25781602001602082028036833780820191505090505b50905060005b84811015611a2a57600b8181548110611904576119036132b5565b5b9060005260206000200160009054906101000a900473ffffffffffffffffffffffffffffffffffffffff16838281518110611942576119416132b5565b5b602002602001019073ffffffffffffffffffffffffffffffffffffffff16908173ffffffffffffffffffffffffffffffffffffffff168152505060096000600b8381548110611994576119936132b5565b5b9060005260206000200160009054906101000a900473ffffffffffffffffffffffffffffffffffffffff1673ffffffffffffffffffffffffffffffffffffffff1673ffffffffffffffffffffffffffffffffffffffff16815260200190815260200160002054828281518110611a0d57611a0c6132b5565b5b60200260200101818152505080611a23906131d6565b90506118e8565b5060005b84811015611bf0576000600182611a4591906132e4565b90505b85811015611bde57828281518110611a6357611a626132b5565b5b6020026020010151838281518110611a7e57611a7d6132b5565b5b60200260200101511115611bcd57828181518110611a9f57611a9e6132b5565b5b6020026020010151838381518110611aba57611ab96132b5565b5b6020026020010151848481518110611ad557611ad46132b5565b5b60200260200101858481518110611aef57611aee6132b5565b5b6020026020010182815250828152505050838181518110611b1357611b126132b5565b5b6020026020010151848381518110611b2e57611b2d6132b5565b5b6020026020010151858481518110611b4957611b486132b5565b5b60200260200101868481518110611b6357611b626132b5565b5b602002602001018273ffffffffffffffffffffffffffffffffffffffff1673ffffffffffffffffffffffffffffffffffffffff168152508273ffffffffffffffffffffffffffffffffffffffff1673ffffffffffffffffffffffffffffffffffffffff1681525050505b80611bd7906131d6565b9050611a48565b5080611be9906131d6565b9050611a2e565b508267ffffffffffffffff811115611c0b57611c0a612adc565b5b604051908082528060200260200182016040528015611c395781602001602082028036833780820191505090505b5095508267ffffffffffffffff811115611c5657611c55612adc565b5b604051908082528060200260200182016040528015611c845781602001602082028036833780820191505090505b50945060005b83811015611d4557828181518110611ca557611ca46132b5565b5b6020026020010151878281518110611cc057611cbf6132b5565b5b602002602001019073ffffffffffffffffffffffffffffffffffffffff16908173ffffffffffffffffffffffffffffffffffffffff1681525050818181518110611d0d57611d0c6132b5565b5b6020026020010151868281518110611d2857611d276132b5565b5b60200260200101818152505080611d3e906131d6565b9050611c8a565b50505050509091565b60008054906101000a900473ffffffffffffffffffffffffffffffffffffffff1673ffffffffffffffffffffffffffffffffffffffff163373ffffffffffffffffffffffffffffffffffffffff1614611dd3576040517f30cd747100000000000000000000000000000000000000000000000000000000815260040160405180910390fd5b601e811115611e0e576040517fcd4e616700000000000000000000000000000000000000000000000000000000815260040160405180910390fd5b8060048190555050565b60066020528060005260406000206000915090508060000160009054906101000a900473ffffffffffffffffffffffffffffffffffffffff16908060010160009054906101000a900473ffffffffffffffffffffffffffffffffffffffff16908060020154908060030160009054906101000a900460ff16905084565b60008054906101000a900473ffffffffffffffffffffffffffffffffffffffff1681565b60007f000000000000000000000000000000000000000000000000000000000000000073ffffffffffffffffffffffffffffffffffffffff166370a08231306040518263ffffffff1660e01b8152600401611f149190612a70565b602060405180830381865afa158015611f31573d6000803e3d6000fd5b505050506040513d601f19601f82011682018060405250810190611f55919061325f565b905090565b60096020528060005260406000206000915090505481565b60008054906101000a900473ffffffffffffffffffffffffffffffffffffffff1673ffffffffffffffffffffffffffffffffffffffff163373ffffffffffffffffffffffffffffffffffffffff1614611ff7576040517f30cd747100000000000000000000000000000000000000000000000000000000815260040160405180910390fd5b8060028190555050565b60008054906101000a900473ffffffffffffffffffffffffffffffffffffffff1673ffffffffffffffffffffffffffffffffffffffff163373ffffffffffffffffffffffffffffffffffffffff1614612086576040517f30cd747100000000000000000000000000000000000000000000000000000000815260040160405180910390fd5b8060038190555050565b7f000000000000000000000000000000000000000000000000000000000000000073ffffffffffffffffffffffffffffffffffffffff166323b872dd3330846040518463ffffffff1660e01b81526004016120ed93929190613318565b6020604051808303816000875af115801561210c573d6000803e3d6000fd5b505050506040513d601f19601f820116820180604052508101906121309190612f60565b612166576040517f90b8ec1800000000000000000000000000000000000000000000000000000000815260040160405180910390fd5b60006005600081548092919061217b906131d6565b91905055905060405180608001604052803373ffffffffffffffffffffffffffffffffffffffff168152602001600073ffffffffffffffffffffffffffffffffffffffff168152602001838152602001600115158152506006600083815260200190815260200160002060008201518160000160006101000a81548173ffffffffffffffffffffffffffffffffffffffff021916908373ffffffffffffffffffffffffffffffffffffffff16021790555060208201518160010160006101000a81548173ffffffffffffffffffffffffffffffffffffffff021916908373ffffffffffffffffffffffffffffffffffffffff1602179055506040820151816002015560608201518160030160006101000a81548160ff0219169083151502179055509050503373ffffffffffffffffffffffffffffffffffffffff16817fd2c008cab3e2faa4367c93db99aca3cd062f88e9459e87d88b19ff8663d3d9ef846040516122e79190612a19565b60405180910390a35050565b60045481565b60006006600083815260200190815260200160002090508060030160009054906101000a900460ff16158061237f5750600073ffffffffffffffffffffffffffffffffffffffff168160010160009054906101000a900473ffffffffffffffffffffffffffffffffffffffff1673ffffffffffffffffffffffffffffffffffffffff1614155b156123b6576040517ffaff9e1b00000000000000000000000000000000000000000000000000000000815260040160405180910390fd5b7f000000000000000000000000000000000000000000000000000000000000000073ffffffffffffffffffffffffffffffffffffffff166323b872dd333084600201546040518463ffffffff1660e01b815260040161241793929190613318565b6020604051808303816000875af1158015612436573d6000803e3d6000fd5b505050506040513d601f19601f8201168201806040525081019061245a9190612f60565b612490576040517f90b8ec1800000000000000000000000000000000000000000000000000000000815260040160405180910390fd5b338160010160006101000a81548173ffffffffffffffffffffffffffffffffffffffff021916908373ffffffffffffffffffffffffffffffffffffffff1602179055503373ffffffffffffffffffffffffffffffffffffffff16827f2be0d3826f37a8de3c1b301652c7dab4429fc3dfe5685e6ce0947666cb32401d60405160405180910390a35050565b60035481565b60008054906101000a900473ffffffffffffffffffffffffffffffffffffffff1673ffffffffffffffffffffffffffffffffffffffff163373ffffffffffffffffffffffffffffffffffffffff16146125a6576040517f30cd747100000000000000000000000000000000000000000000000000000000815260040160405180910390fd5b80600160006101000a81548173ffffffffffffffffffffffffffffffffffffffff021916908373ffffffffffffffffffffffffffffffffffffffff16021790555050565b60008054906101000a900473ffffffffffffffffffffffffffffffffffffffff1673ffffffffffffffffffffffffffffffffffffffff163373ffffffffffffffffffffffffffffffffffffffff161461266f576040517f30cd747100000000000000000000000000000000000000000000000000000000815260040160405180910390fd5b8073ffffffffffffffffffffffffffffffffffffffff1660008054906101000a900473ffffffffffffffffffffffffffffffffffffffff1673ffffffffffffffffffffffffffffffffffffffff167f8be0079c531659141344cd1fd0a4f28419497f9722a3daafe3b4186f6b6457e060405160405180910390a3806000806101000a81548173ffffffffffffffffffffffffffffffffffffffff021916908373ffffffffffffffffffffffffffffffffffffffff16021790555050565b600b818154811061273c57600080fd5b906000526020600020016000915054906101000a900473ffffffffffffffffffffffffffffffffffffffff1681565b60025481565b60086020528060005260406000206000915054906101000a900460ff1681565b600060418251146127ce576040517f4be6321b00000000000000000000000000000000000000000000000000000000815260040160405180910390fd5b60008060006020850151925060408501519150606085015160001a90506001868285856040516000815260200160405260405161280e949392919061337a565b6020604051602081039080840390855afa158015612830573d6000803e3d6000fd5b50505060206040510351935050505092915050565b6000604051905090565b600080fd5b600080fd5b600073ffffffffffffffffffffffffffffffffffffffff82169050919050565b600061288482612859565b9050919050565b61289481612879565b811461289f57600080fd5b50565b6000813590506128b18161288b565b92915050565b6000602082840312156128cd576128cc61284f565b5b60006128db848285016128a2565b91505092915050565b60008115159050919050565b6128f9816128e4565b82525050565b600060208201905061291460008301846128f0565b92915050565b6000819050919050565b600061293f61293a61293584612859565b61291a565b612859565b9050919050565b600061295182612924565b9050919050565b600061296382612946565b9050919050565b61297381612958565b82525050565b600060208201905061298e600083018461296a565b92915050565b6000819050919050565b6129a781612994565b81146129b257600080fd5b50565b6000813590506129c48161299e565b92915050565b600080604083850312156129e1576129e061284f565b5b60006129ef858286016128a2565b9250506020612a00858286016129b5565b9150509250929050565b612a1381612994565b82525050565b6000602082019050612a2e6000830184612a0a565b92915050565b600060208284031215612a4a57612a4961284f565b5b6000612a58848285016129b5565b91505092915050565b612a6a81612879565b82525050565b6000602082019050612a856000830184612a61565b92915050565b6000819050919050565b612a9e81612a8b565b8114612aa957600080fd5b50565b600081359050612abb81612a95565b92915050565b600080fd5b600080fd5b6000601f19601f8301169050919050565b7f4e487b7100000000000000000000000000000000000000000000000000000000600052604160045260246000fd5b612b1482612acb565b810181811067ffffffffffffffff82111715612b3357612b32612adc565b5b80604052505050565b6000612b46612845565b9050612b528282612b0b565b919050565b600067ffffffffffffffff821115612b7257612b71612adc565b5b612b7b82612acb565b9050602081019050919050565b82818337600083830152505050565b6000612baa612ba584612b57565b612b3c565b905082815260208101848484011115612bc657612bc5612ac6565b5b612bd1848285612b88565b509392505050565b600082601f830112612bee57612bed612ac1565b5b8135612bfe848260208601612b97565b91505092915050565b60008060008060808587031215612c2157612c2061284f565b5b6000612c2f878288016129b5565b9450506020612c40878288016128a2565b9350506040612c5187828801612aac565b925050606085013567ffffffffffffffff811115612c7257612c71612854565b5b612c7e87828801612bd9565b91505092959194509250565b60008060408385031215612ca157612ca061284f565b5b6000612caf85828601612aac565b925050602083013567ffffffffffffffff811115612cd057612ccf612854565b5b612cdc85828601612bd9565b9150509250929050565b600081519050919050565b600082825260208201905092915050565b6000819050602082019050919050565b612d1b81612879565b82525050565b6000612d2d8383612d12565b60208301905092915050565b6000602082019050919050565b6000612d5182612ce6565b612d5b8185612cf1565b9350612d6683612d02565b8060005b83811015612d97578151612d7e8882612d21565b9750612d8983612d39565b925050600181019050612d6a565b5085935050505092915050565b600081519050919050565b600082825260208201905092915050565b6000819050602082019050919050565b612dd981612994565b82525050565b6000612deb8383612dd0565b60208301905092915050565b6000602082019050919050565b6000612e0f82612da4565b612e198185612daf565b9350612e2483612dc0565b8060005b83811015612e55578151612e3c8882612ddf565b9750612e4783612df7565b925050600181019050612e28565b5085935050505092915050565b60006040820190508181036000830152612e7c8185612d46565b90508181036020830152612e908184612e04565b90509392505050565b6000608082019050612eae6000830187612a61565b612ebb6020830186612a61565b612ec86040830185612a0a565b612ed560608301846128f0565b95945050505050565b600060208284031215612ef457612ef361284f565b5b6000612f0284828501612aac565b91505092915050565b6000604082019050612f206000830185612a61565b612f2d6020830184612a0a565b9392505050565b612f3d816128e4565b8114612f4857600080fd5b50565b600081519050612f5a81612f34565b92915050565b600060208284031215612f7657612f7561284f565b5b6000612f8484828501612f4b565b91505092915050565b6000819050919050565b612fa8612fa382612994565b612f8d565b82525050565b60008160601b9050919050565b6000612fc682612fae565b9050919050565b6000612fd882612fbb565b9050919050565b612ff0612feb82612879565b612fcd565b82525050565b6000819050919050565b61301161300c82612a8b565b612ff6565b82525050565b60006130238286612f97565b6020820191506130338285612fdf565b6014820191506130438284613000565b602082019150819050949350505050565b600081905092915050565b7f19457468657265756d205369676e6564204d6573736167653a0a333200000000600082015250565b6000613095601c83613054565b91506130a08261305f565b601c82019050919050565b60006130b682613088565b91506130c28284613000565b60208201915081905092915050565b7f4e487b7100000000000000000000000000000000000000000000000000000000600052601160045260246000fd5b600061310b82612994565b915061311683612994565b925082820261312481612994565b9150828204841483151761313b5761313a6130d1565b5b5092915050565b7f4e487b7100000000000000000000000000000000000000000000000000000000600052601260045260246000fd5b600061317c82612994565b915061318783612994565b92508261319757613196613142565b5b828204905092915050565b60006131ad82612994565b91506131b883612994565b92508282039050818111156131d0576131cf6130d1565b5b92915050565b60006131e182612994565b91507fffffffffffffffffffffffffffffffffffffffffffffffffffffffffffffffff8203613213576132126130d1565b5b600182019050919050565b600061322a8285612fdf565b60148201915061323a8284613000565b6020820191508190509392505050565b6000815190506132598161299e565b92915050565b6000602082840312156132755761327461284f565b5b60006132838482850161324a565b91505092915050565b60006040820190506132a16000830185612a0a565b6132ae6020830184612a0a565b9392505050565b7f4e487b7100000000000000000000000000000000000000000000000000000000600052603260045260246000fd5b60006132ef82612994565b91506132fa83612994565b9250828201905080821115613312576133116130d1565b5b92915050565b600060608201905061332d6000830186612a61565b61333a6020830185612a61565b6133476040830184612a0a565b949350505050565b61335881612a8b565b82525050565b600060ff82169050919050565b6133748161335e565b82525050565b600060808201905061338f600083018761334f565b61339c602083018661336b565b6133a9604083018561334f565b6133b6606083018461334f565b9594505050505056fea264697066735822122033bee25af2c71e4b0e7132189849370d957f671ce2033e4ab314e0044e4dbb6564736f6c63430008140033",
  "linkReferences": {},
  "deployedLinkReferences": {}
}